{
  "_format": "hh-sol-artifact-1",
  "contractName": "FLContribution",
  "sourceName": "contracts/FLContribution.sol",
  "abi": [
    {
      "inputs": [],
      "stateMutability": "nonpayable",
      "type": "constructor"
    },
    {
      "anonymous": false,
      "inputs": [
        {
          "indexed": true,
          "internalType": "address",
          "name": "participant",
          "type": "address"
        },
        {
          "indexed": false,
          "internalType": "uint256",
          "name": "roundId",
          "type": "uint256"
        },
        {
          "indexed": false,
          "internalType": "uint256",
          "name": "contributionScore",
          "type": "uint256"
        }
      ],
      "name": "ContributionRecorded",
      "type": "event"
    },
    {
      "inputs": [],
      "name": "getParticipants",
      "outputs": [
        {
          "internalType": "address[]",
          "name": "",
          "type": "address[]"
        }
      ],
      "stateMutability": "view",
      "type": "function"
    },
    {
      "inputs": [
        {
          "internalType": "uint256",
          "name": "roundId",
          "type": "uint256"
        }
      ],
      "name": "getRoundContributions",
      "outputs": [
        {
          "internalType": "address[]",
          "name": "",
          "type": "address[]"
        },
        {
          "internalType": "uint256[]",
          "name": "",
          "type": "uint256[]"
        }
      ],
      "stateMutability": "view",
      "type": "function"
    },
    {
      "inputs": [
        {
          "internalType": "address",
          "name": "participant",
          "type": "address"
        }
      ],
      "name": "getTotalContribution",
      "outputs": [
        {
          "internalType": "uint256",
          "name": "",
          "type": "uint256"
        }
      ],
      "stateMutability": "view",
      "type": "function"
    },
    {
      "inputs": [
        {
          "internalType": "address",
          "name": "",
          "type": "address"
        }
      ],
      "name": "isParticipant",
      "outputs": [
        {
          "internalType": "bool",
          "name": "",
          "type": "bool"
        }
      ],
      "stateMutability": "view",
      "type": "function"
    },
    {
      "inputs": [],
      "name": "owner",
      "outputs": [
        {
          "internalType": "address",
          "name": "",
          "type": "address"
        }
      ],
      "stateMutability": "view",
      "type": "function"
    },
    {
      "inputs": [
        {
          "internalType": "address",
          "name": "",
          "type": "address"
        },
        {
          "internalType": "uint256",
          "name": "",
          "type": "uint256"
        }
      ],
      "name": "participantContributions",
      "outputs": [
        {
          "internalType": "uint256",
          "name": "contributionScore",
          "type": "uint256"
        },
        {
          "internalType": "uint256",
          "name": "roundId",
          "type": "uint256"
        },
        {
          "internalType": "uint256",
          "name": "timestamp",
          "type": "uint256"
        }
      ],
      "stateMutability": "view",
      "type": "function"
    },
    {
      "inputs": [
        {
          "internalType": "uint256",
          "name": "",
          "type": "uint256"
        }
      ],
      "name": "participants",
      "outputs": [
        {
          "internalType": "address",
          "name": "",
          "type": "address"
        }
      ],
      "stateMutability": "view",
      "type": "function"
    },
    {
      "inputs": [
        {
          "internalType": "address",
          "name": "participant",
          "type": "address"
        },
        {
          "internalType": "uint256",
          "name": "roundId",
          "type": "uint256"
        },
        {
          "internalType": "uint256",
          "name": "contributionScore",
          "type": "uint256"
        }
      ],
      "name": "recordContribution",
      "outputs": [],
      "stateMutability": "nonpayable",
      "type": "function"
    },
    {
      "inputs": [
        {
          "internalType": "uint256",
          "name": "",
          "type": "uint256"
        },
        {
          "internalType": "address",
          "name": "",
          "type": "address"
        }
      ],
      "name": "roundContributions",
      "outputs": [
        {
          "internalType": "uint256",
          "name": "",
          "type": "uint256"
        }
      ],
      "stateMutability": "view",
      "type": "function"
    }
  ],
  "bytecode": "0x6080604052348015600f57600080fd5b50336000806101000a81548173ffffffffffffffffffffffffffffffffffffffff021916908373ffffffffffffffffffffffffffffffffffffffff160217905550610f288061005f6000396000f3fe608060405234801561001057600080fd5b50600436106100935760003560e01c80635aa68ac0116100665780635aa68ac0146101455780638a9e741b146101635780638da5cb5b14610195578063929066f5146101b3578063bdc35b74146101e357610093565b80630c45114d146100985780632b8f1a3d146100c957806335c1d349146100f95780635867b78814610129575b600080fd5b6100b260048036038101906100ad9190610944565b610213565b6040516100c0929190610b1f565b60405180910390f35b6100e360048036038101906100de9190610b82565b6103c9565b6040516100f09190610bbe565b60405180910390f35b610113600480360381019061010e9190610944565b6104a4565b6040516101209190610be8565b60405180910390f35b610143600480360381019061013e9190610c03565b6104e3565b005b61014d6107cb565b60405161015a9190610c56565b60405180910390f35b61017d60048036038101906101789190610c78565b610859565b60405161018c93929190610cb8565b60405180910390f35b61019d6108a0565b6040516101aa9190610be8565b60405180910390f35b6101cd60048036038101906101c89190610b82565b6108c4565b6040516101da9190610d0a565b60405180910390f35b6101fd60048036038101906101f89190610d25565b6108e4565b60405161020a9190610bbe565b60405180910390f35b606080600060038054905067ffffffffffffffff81111561023757610236610d65565b5b6040519080825280602002602001820160405280156102655781602001602082028036833780820191505090505b50905060005b60038054905081101561033357600260008681526020019081526020016000206000600383815481106102a1576102a0610d94565b5b9060005260206000200160009054906101000a900473ffffffffffffffffffffffffffffffffffffffff1673ffffffffffffffffffffffffffffffffffffffff1673ffffffffffffffffffffffffffffffffffffffff1681526020019081526020016000205482828151811061031a57610319610d94565b5b602002602001018181525050808060010191505061026b565b50600381818054806020026020016040519081016040528092919081815260200182805480156103b857602002820191906000526020600020905b8160009054906101000a900473ffffffffffffffffffffffffffffffffffffffff1673ffffffffffffffffffffffffffffffffffffffff168152602001906001019080831161036e575b505050505091509250925050915091565b6000806000905060005b600160008573ffffffffffffffffffffffffffffffffffffffff1673ffffffffffffffffffffffffffffffffffffffff1681526020019081526020016000208054905081101561049a57600160008573ffffffffffffffffffffffffffffffffffffffff1673ffffffffffffffffffffffffffffffffffffffff168152602001908152602001600020818154811061046e5761046d610d94565b5b9060005260206000209060030201600001548261048b9190610df2565b915080806001019150506103d3565b5080915050919050565b600381815481106104b457600080fd5b906000526020600020016000915054906101000a900473ffffffffffffffffffffffffffffffffffffffff1681565b60008054906101000a900473ffffffffffffffffffffffffffffffffffffffff1673ffffffffffffffffffffffffffffffffffffffff163373ffffffffffffffffffffffffffffffffffffffff1614610571576040517f08c379a000000000000000000000000000000000000000000000000000000000815260040161056890610ea9565b60405180910390fd5b600460008473ffffffffffffffffffffffffffffffffffffffff1673ffffffffffffffffffffffffffffffffffffffff16815260200190815260200160002060009054906101000a900460ff1661067e576003839080600181540180825580915050600190039060005260206000200160009091909190916101000a81548173ffffffffffffffffffffffffffffffffffffffff021916908373ffffffffffffffffffffffffffffffffffffffff1602179055506001600460008573ffffffffffffffffffffffffffffffffffffffff1673ffffffffffffffffffffffffffffffffffffffff16815260200190815260200160002060006101000a81548160ff0219169083151502179055505b600160008473ffffffffffffffffffffffffffffffffffffffff1673ffffffffffffffffffffffffffffffffffffffff16815260200190815260200160002060405180606001604052808381526020018481526020014281525090806001815401808255809150506001900390600052602060002090600302016000909190919091506000820151816000015560208201518160010155604082015181600201555050806002600084815260200190815260200160002060008573ffffffffffffffffffffffffffffffffffffffff1673ffffffffffffffffffffffffffffffffffffffff168152602001908152602001600020819055508273ffffffffffffffffffffffffffffffffffffffff167f0196d0533f37ea47d88e4eb66396286ef3e57c7ebd89f644475d77f1e899cace83836040516107be929190610ec9565b60405180910390a2505050565b6060600380548060200260200160405190810160405280929190818152602001828054801561084f57602002820191906000526020600020905b8160009054906101000a900473ffffffffffffffffffffffffffffffffffffffff1673ffffffffffffffffffffffffffffffffffffffff1681526020019060010190808311610805575b5050505050905090565b6001602052816000526040600020818154811061087557600080fd5b9060005260206000209060030201600091509150508060000154908060010154908060020154905083565b60008054906101000a900473ffffffffffffffffffffffffffffffffffffffff1681565b60046020528060005260406000206000915054906101000a900460ff1681565b6002602052816000526040600020602052806000526040600020600091509150505481565b600080fd5b6000819050919050565b6109218161090e565b811461092c57600080fd5b50565b60008135905061093e81610918565b92915050565b60006020828403121561095a57610959610909565b5b60006109688482850161092f565b91505092915050565b600081519050919050565b600082825260208201905092915050565b6000819050602082019050919050565b600073ffffffffffffffffffffffffffffffffffffffff82169050919050565b60006109c88261099d565b9050919050565b6109d8816109bd565b82525050565b60006109ea83836109cf565b60208301905092915050565b6000602082019050919050565b6000610a0e82610971565b610a18818561097c565b9350610a238361098d565b8060005b83811015610a54578151610a3b88826109de565b9750610a46836109f6565b925050600181019050610a27565b5085935050505092915050565b600081519050919050565b600082825260208201905092915050565b6000819050602082019050919050565b610a968161090e565b82525050565b6000610aa88383610a8d565b60208301905092915050565b6000602082019050919050565b6000610acc82610a61565b610ad68185610a6c565b9350610ae183610a7d565b8060005b83811015610b12578151610af98882610a9c565b9750610b0483610ab4565b925050600181019050610ae5565b5085935050505092915050565b60006040820190508181036000830152610b398185610a03565b90508181036020830152610b4d8184610ac1565b90509392505050565b610b5f816109bd565b8114610b6a57600080fd5b50565b600081359050610b7c81610b56565b92915050565b600060208284031215610b9857610b97610909565b5b6000610ba684828501610b6d565b91505092915050565b610bb88161090e565b82525050565b6000602082019050610bd36000830184610baf565b92915050565b610be2816109bd565b82525050565b6000602082019050610bfd6000830184610bd9565b92915050565b600080600060608486031215610c1c57610c1b610909565b5b6000610c2a86828701610b6d565b9350506020610c3b8682870161092f565b9250506040610c4c8682870161092f565b9150509250925092565b60006020820190508181036000830152610c708184610a03565b905092915050565b60008060408385031215610c8f57610c8e610909565b5b6000610c9d85828601610b6d565b9250506020610cae8582860161092f565b9150509250929050565b6000606082019050610ccd6000830186610baf565b610cda6020830185610baf565b610ce76040830184610baf565b949350505050565b60008115159050919050565b610d0481610cef565b82525050565b6000602082019050610d1f6000830184610cfb565b92915050565b60008060408385031215610d3c57610d3b610909565b5b6000610d4a8582860161092f565b9250506020610d5b85828601610b6d565b9150509250929050565b7f4e487b7100000000000000000000000000000000000000000000000000000000600052604160045260246000fd5b7f4e487b7100000000000000000000000000000000000000000000000000000000600052603260045260246000fd5b7f4e487b7100000000000000000000000000000000000000000000000000000000600052601160045260246000fd5b6000610dfd8261090e565b9150610e088361090e565b9250828201905080821115610e2057610e1f610dc3565b5b92915050565b600082825260208201905092915050565b7f4f6e6c7920746865206f776e65722063616e2063616c6c20746869732066756e60008201527f6374696f6e000000000000000000000000000000000000000000000000000000602082015250565b6000610e93602583610e26565b9150610e9e82610e37565b604082019050919050565b60006020820190508181036000830152610ec281610e86565b9050919050565b6000604082019050610ede6000830185610baf565b610eeb6020830184610baf565b939250505056fea2646970667358221220c115402043b3db1fbfb0fc3ec9111fd3b5193104bf5e18b2cb8ce741e645741464736f6c634300081c0033",
  "linkReferences": {},
  "deployedLinkReferences": {}
}