{
  "_format": "hh-sol-artifact-1",
  "contractName": "FLCommunication",
  "sourceName": "contracts/FLCommunication.sol",
  "abi": [
    {
      "inputs": [],
      "stateMutability": "nonpayable",
      "type": "constructor"
    },
    {
      "anonymous": false,
      "inputs": [
        {
          "indexed": false,
          "internalType": "uint256",
          "name": "roundId",
          "type": "uint256"
        },
        {
          "indexed": false,
          "internalType": "uint256",
          "name": "timestamp",
          "type": "uint256"
        },
        {
          "indexed": false,
          "internalType": "bytes",
          "name": "publicKey",
          "type": "bytes"
        }
      ],
      "name": "FLRoundInitiated",
      "type": "event"
    },
    {
      "anonymous": false,
      "inputs": [
        {
          "indexed": false,
          "internalType": "uint256",
          "name": "roundId",
          "type": "uint256"
        },
        {
          "indexed": false,
          "internalType": "bytes",
          "name": "modelHash",
          "type": "bytes"
        },
        {
          "indexed": false,
          "internalType": "uint256",
          "name": "timestamp",
          "type": "uint256"
        }
      ],
      "name": "GlobalModelUpdate",
      "type": "event"
    },
    {
      "anonymous": false,
      "inputs": [
        {
          "indexed": false,
          "internalType": "uint256",
          "name": "roundId",
          "type": "uint256"
        },
        {
          "indexed": true,
          "internalType": "address",
          "name": "participant",
          "type": "address"
        },
        {
          "indexed": false,
          "internalType": "bytes",
          "name": "modelHash",
          "type": "bytes"
        }
      ],
      "name": "ModelUpdate",
      "type": "event"
    },
    {
      "inputs": [
        {
          "internalType": "uint256",
          "name": "roundId",
          "type": "uint256"
        },
        {
          "internalType": "bytes",
          "name": "publicKey",
          "type": "bytes"
        }
      ],
      "name": "initiateRound",
      "outputs": [],
      "stateMutability": "nonpayable",
      "type": "function"
    },
    {
      "inputs": [],
      "name": "owner",
      "outputs": [
        {
          "internalType": "address",
          "name": "",
          "type": "address"
        }
      ],
      "stateMutability": "view",
      "type": "function"
    },
    {
      "inputs": [
        {
          "internalType": "uint256",
          "name": "roundId",
          "type": "uint256"
        },
        {
          "internalType": "bytes",
          "name": "modelHash",
          "type": "bytes"
        }
      ],
      "name": "publishGlobalModel",
      "outputs": [],
      "stateMutability": "nonpayable",
      "type": "function"
    },
    {
      "inputs": [
        {
          "internalType": "uint256",
          "name": "roundId",
          "type": "uint256"
        },
        {
          "internalType": "bytes",
          "name": "modelHash",
          "type": "bytes"
        }
      ],
      "name": "submitModelUpdate",
      "outputs": [],
      "stateMutability": "nonpayable",
      "type": "function"
    }
  ],
  "bytecode": "0x6080604052348015600f57600080fd5b50336000806101000a81548173ffffffffffffffffffffffffffffffffffffffff021916908373ffffffffffffffffffffffffffffffffffffffff1602179055506106378061005f6000396000f3fe608060405234801561001057600080fd5b506004361061004c5760003560e01c806309afa99c146100515780638da5cb5b1461006d578063b698e5541461008b578063deb06985146100a7575b600080fd5b61006b60048036038101906100669190610383565b6100c3565b005b610075610193565b6040516100829190610424565b60405180910390f35b6100a560048036038101906100a09190610383565b6101b7565b005b6100c160048036038101906100bc9190610383565b610287565b005b60008054906101000a900473ffffffffffffffffffffffffffffffffffffffff1673ffffffffffffffffffffffffffffffffffffffff163373ffffffffffffffffffffffffffffffffffffffff1614610151576040517f08c379a0000000000000000000000000000000000000000000000000000000008152600401610148906104c2565b60405180910390fd5b7fcbd1c62efc126dd0408b0b856039f852dae956cbc7adb531461dbb2f32cb075a83838342604051610186949392919061054f565b60405180910390a1505050565b60008054906101000a900473ffffffffffffffffffffffffffffffffffffffff1681565b60008054906101000a900473ffffffffffffffffffffffffffffffffffffffff1673ffffffffffffffffffffffffffffffffffffffff163373ffffffffffffffffffffffffffffffffffffffff1614610245576040517f08c379a000000000000000000000000000000000000000000000000000000000815260040161023c906104c2565b60405180910390fd5b7ffc799df4edef959f3a76b8b1b65fa32c1d73f1d56f6c6a31558e8cef5f2359778342848460405161027a949392919061058f565b60405180910390a1505050565b3373ffffffffffffffffffffffffffffffffffffffff167f741bb288d0c47a6226e64874ca5910fb5d6993633a2b4491af519699b52886908484846040516102d1939291906105cf565b60405180910390a2505050565b600080fd5b600080fd5b6000819050919050565b6102fb816102e8565b811461030657600080fd5b50565b600081359050610318816102f2565b92915050565b600080fd5b600080fd5b600080fd5b60008083601f8401126103435761034261031e565b5b8235905067ffffffffffffffff8111156103605761035f610323565b5b60208301915083600182028301111561037c5761037b610328565b5b9250929050565b60008060006040848603121561039c5761039b6102de565b5b60006103aa86828701610309565b935050602084013567ffffffffffffffff8111156103cb576103ca6102e3565b5b6103d78682870161032d565b92509250509250925092565b600073ffffffffffffffffffffffffffffffffffffffff82169050919050565b600061040e826103e3565b9050919050565b61041e81610403565b82525050565b60006020820190506104396000830184610415565b92915050565b600082825260208201905092915050565b7f4f6e6c7920746865206f776e65722063616e2063616c6c20746869732066756e60008201527f6374696f6e000000000000000000000000000000000000000000000000000000602082015250565b60006104ac60258361043f565b91506104b782610450565b604082019050919050565b600060208201905081810360008301526104db8161049f565b9050919050565b6104eb816102e8565b82525050565b600082825260208201905092915050565b82818337600083830152505050565b6000601f19601f8301169050919050565b600061052e83856104f1565b935061053b838584610502565b61054483610511565b840190509392505050565b600060608201905061056460008301876104e2565b8181036020830152610577818587610522565b905061058660408301846104e2565b95945050505050565b60006060820190506105a460008301876104e2565b6105b160208301866104e2565b81810360408301526105c4818486610522565b905095945050505050565b60006040820190506105e460008301866104e2565b81810360208301526105f7818486610522565b905094935050505056fea2646970667358221220557a27b48e733cde3b27e6133d262101aaf565c133bc4e356697eaa5457fac5c64736f6c634300081c0033",
  "linkReferences": {},
  "deployedLinkReferences": {}
}