{
  "_format": "hh-sol-artifact-1",
  "contractName": "FLRewardDistribution",
  "sourceName": "contracts/FLRewardDistribution.sol",
  "abi": [
    {
      "inputs": [
        {
          "internalType": "address",
          "name": "_rewardTokenAddress",
          "type": "address"
        },
        {
          "internalType": "address",
          "name": "_contributionContractAddress",
          "type": "address"
        },
        {
          "internalType": "uint256",
          "name": "_rewardPerRound",
          "type": "uint256"
        }
      ],
      "stateMutability": "nonpayable",
      "type": "constructor"
    },
    {
      "anonymous": false,
      "inputs": [
        {
          "indexed": true,
          "internalType": "address",
          "name": "participant",
          "type": "address"
        },
        {
          "indexed": false,
          "internalType": "uint256",
          "name": "roundId",
          "type": "uint256"
        },
        {
          "indexed": false,
          "internalType": "uint256",
          "name": "amount",
          "type": "uint256"
        }
      ],
      "name": "ParticipantRewarded",
      "type": "event"
    },
    {
      "anonymous": false,
      "inputs": [
        {
          "indexed": true,
          "internalType": "uint256",
          "name": "roundId",
          "type": "uint256"
        },
        {
          "indexed": false,
          "internalType": "uint256",
          "name": "totalAmount",
          "type": "uint256"
        }
      ],
      "name": "RewardsDistributed",
      "type": "event"
    },
    {
      "inputs": [],
      "name": "contributionContract",
      "outputs": [
        {
          "internalType": "contract FLContribution",
          "name": "",
          "type": "address"
        }
      ],
      "stateMutability": "view",
      "type": "function"
    },
    {
      "inputs": [],
      "name": "currentRound",
      "outputs": [
        {
          "internalType": "uint256",
          "name": "",
          "type": "uint256"
        }
      ],
      "stateMutability": "view",
      "type": "function"
    },
    {
      "inputs": [
        {
          "internalType": "uint256",
          "name": "roundId",
          "type": "uint256"
        }
      ],
      "name": "distributeRewards",
      "outputs": [],
      "stateMutability": "nonpayable",
      "type": "function"
    },
    {
      "inputs": [],
      "name": "owner",
      "outputs": [
        {
          "internalType": "address",
          "name": "",
          "type": "address"
        }
      ],
      "stateMutability": "view",
      "type": "function"
    },
    {
      "inputs": [],
      "name": "rewardPerRound",
      "outputs": [
        {
          "internalType": "uint256",
          "name": "",
          "type": "uint256"
        }
      ],
      "stateMutability": "view",
      "type": "function"
    },
    {
      "inputs": [],
      "name": "rewardToken",
      "outputs": [
        {
          "internalType": "contract FLRewardToken",
          "name": "",
          "type": "address"
        }
      ],
      "stateMutability": "view",
      "type": "function"
    },
    {
      "inputs": [
        {
          "internalType": "uint256",
          "name": "",
          "type": "uint256"
        }
      ],
      "name": "rewardsDistributed",
      "outputs": [
        {
          "internalType": "bool",
          "name": "",
          "type": "bool"
        }
      ],
      "stateMutability": "view",
      "type": "function"
    },
    {
      "inputs": [
        {
          "internalType": "address",
          "name": "_contributionContractAddress",
          "type": "address"
        }
      ],
      "name": "setContributionContract",
      "outputs": [],
      "stateMutability": "nonpayable",
      "type": "function"
    },
    {
      "inputs": [
        {
          "internalType": "uint256",
          "name": "_rewardPerRound",
          "type": "uint256"
        }
      ],
      "name": "setRewardPerRound",
      "outputs": [],
      "stateMutability": "nonpayable",
      "type": "function"
    }
  ],
  "bytecode": "0x608060405234801561001057600080fd5b5060405161127a38038061127a8339818101604052810190610032919061019c565b33600260006101000a81548173ffffffffffffffffffffffffffffffffffffffff021916908373ffffffffffffffffffffffffffffffffffffffff16021790555082600160006101000a81548173ffffffffffffffffffffffffffffffffffffffff021916908373ffffffffffffffffffffffffffffffffffffffff160217905550816000806101000a81548173ffffffffffffffffffffffffffffffffffffffff021916908373ffffffffffffffffffffffffffffffffffffffff160217905550806003819055505050506101ef565b600080fd5b600073ffffffffffffffffffffffffffffffffffffffff82169050919050565b600061013382610108565b9050919050565b61014381610128565b811461014e57600080fd5b50565b6000815190506101608161013a565b92915050565b6000819050919050565b61017981610166565b811461018457600080fd5b50565b60008151905061019681610170565b92915050565b6000806000606084860312156101b5576101b4610103565b5b60006101c386828701610151565b93505060206101d486828701610151565b92505060406101e586828701610187565b9150509250925092565b61107c806101fe6000396000f3fe608060405234801561001057600080fd5b50600436106100935760003560e01c80638da5cb5b116100665780638da5cb5b1461010c578063a3b5fcd81461012a578063ddfdec601461015a578063f6e7623e14610178578063f7c618c11461019457610093565b806333f93bcd1461009857806359974e38146100b657806385480556146100d25780638a19c8bc146100ee575b600080fd5b6100a06101b2565b6040516100ad91906107df565b60405180910390f35b6100d060048036038101906100cb919061083a565b6101b8565b005b6100ec60048036038101906100e791906108c5565b6105c3565b005b6100f6610696565b60405161010391906107df565b60405180910390f35b61011461069c565b6040516101219190610901565b60405180910390f35b610144600480360381019061013f919061083a565b6106c2565b6040516101519190610937565b60405180910390f35b6101626106e2565b60405161016f91906109b1565b60405180910390f35b610192600480360381019061018d919061083a565b610706565b005b61019c6107a0565b6040516101a991906109ed565b60405180910390f35b60035481565b600260009054906101000a900473ffffffffffffffffffffffffffffffffffffffff1673ffffffffffffffffffffffffffffffffffffffff163373ffffffffffffffffffffffffffffffffffffffff1614610248576040517f08c379a000000000000000000000000000000000000000000000000000000000815260040161023f90610a8b565b60405180910390fd5b6005600082815260200190815260200160002060009054906101000a900460ff16156102a9576040517f08c379a00000000000000000000000000000000000000000000000000000000081526004016102a090610b1d565b60405180910390fd5b60008060008054906101000a900473ffffffffffffffffffffffffffffffffffffffff1673ffffffffffffffffffffffffffffffffffffffff16630c45114d846040518263ffffffff1660e01b815260040161030591906107df565b600060405180830381865afa158015610322573d6000803e3d6000fd5b505050506040513d6000823e3d601f19601f8201168201806040525081019061034b9190610d83565b915091506000825111610393576040517f08c379a000000000000000000000000000000000000000000000000000000000815260040161038a90610e47565b60405180910390fd5b6000805b82518110156103d5578281815181106103b3576103b2610e67565b5b6020026020010151826103c69190610ec5565b91508080600101915050610397565b5060005b83518110156105565760008211156105495760008284838151811061040157610400610e67565b5b60200260200101516003546104169190610ef9565b6104209190610f6a565b9050600160009054906101000a900473ffffffffffffffffffffffffffffffffffffffff1673ffffffffffffffffffffffffffffffffffffffff166340c10f1986848151811061047357610472610e67565b5b6020026020010151836040518363ffffffff1660e01b8152600401610499929190610f9b565b6020604051808303816000875af11580156104b8573d6000803e3d6000fd5b505050506040513d601f19601f820116820180604052508101906104dc9190610ff0565b508482815181106104f0576104ef610e67565b5b602002602001015173ffffffffffffffffffffffffffffffffffffffff167f65ac6317fe61b9d6677cf23b1220e67785651194723e4f3f23b7e955d3ce56d3878360405161053f92919061101d565b60405180910390a2505b80806001019150506103d9565b5060016005600086815260200190815260200160002060006101000a81548160ff021916908315150217905550837f29e98ba00d07f171959c4ddcd2f3020debc7c52cf537a034d7e664340d098c6c6003546040516105b591906107df565b60405180910390a250505050565b600260009054906101000a900473ffffffffffffffffffffffffffffffffffffffff1673ffffffffffffffffffffffffffffffffffffffff163373ffffffffffffffffffffffffffffffffffffffff1614610653576040517f08c379a000000000000000000000000000000000000000000000000000000000815260040161064a90610a8b565b60405180910390fd5b806000806101000a81548173ffffffffffffffffffffffffffffffffffffffff021916908373ffffffffffffffffffffffffffffffffffffffff16021790555050565b60045481565b600260009054906101000a900473ffffffffffffffffffffffffffffffffffffffff1681565b60056020528060005260406000206000915054906101000a900460ff1681565b60008054906101000a900473ffffffffffffffffffffffffffffffffffffffff1681565b600260009054906101000a900473ffffffffffffffffffffffffffffffffffffffff1673ffffffffffffffffffffffffffffffffffffffff163373ffffffffffffffffffffffffffffffffffffffff1614610796576040517f08c379a000000000000000000000000000000000000000000000000000000000815260040161078d90610a8b565b60405180910390fd5b8060038190555050565b600160009054906101000a900473ffffffffffffffffffffffffffffffffffffffff1681565b6000819050919050565b6107d9816107c6565b82525050565b60006020820190506107f460008301846107d0565b92915050565b6000604051905090565b600080fd5b600080fd5b610817816107c6565b811461082257600080fd5b50565b6000813590506108348161080e565b92915050565b6000602082840312156108505761084f610804565b5b600061085e84828501610825565b91505092915050565b600073ffffffffffffffffffffffffffffffffffffffff82169050919050565b600061089282610867565b9050919050565b6108a281610887565b81146108ad57600080fd5b50565b6000813590506108bf81610899565b92915050565b6000602082840312156108db576108da610804565b5b60006108e9848285016108b0565b91505092915050565b6108fb81610887565b82525050565b600060208201905061091660008301846108f2565b92915050565b60008115159050919050565b6109318161091c565b82525050565b600060208201905061094c6000830184610928565b92915050565b6000819050919050565b600061097761097261096d84610867565b610952565b610867565b9050919050565b60006109898261095c565b9050919050565b600061099b8261097e565b9050919050565b6109ab81610990565b82525050565b60006020820190506109c660008301846109a2565b92915050565b60006109d78261097e565b9050919050565b6109e7816109cc565b82525050565b6000602082019050610a0260008301846109de565b92915050565b600082825260208201905092915050565b7f4f6e6c7920746865206f776e65722063616e2063616c6c20746869732066756e60008201527f6374696f6e000000000000000000000000000000000000000000000000000000602082015250565b6000610a75602583610a08565b9150610a8082610a19565b604082019050919050565b60006020820190508181036000830152610aa481610a68565b9050919050565b7f5265776172647320616c726561647920646973747269627574656420666f722060008201527f7468697320726f756e6400000000000000000000000000000000000000000000602082015250565b6000610b07602a83610a08565b9150610b1282610aab565b604082019050919050565b60006020820190508181036000830152610b3681610afa565b9050919050565b600080fd5b6000601f19601f8301169050919050565b7f4e487b7100000000000000000000000000000000000000000000000000000000600052604160045260246000fd5b610b8b82610b42565b810181811067ffffffffffffffff82111715610baa57610ba9610b53565b5b80604052505050565b6000610bbd6107fa565b9050610bc98282610b82565b919050565b600067ffffffffffffffff821115610be957610be8610b53565b5b602082029050602081019050919050565b600080fd5b600081519050610c0e81610899565b92915050565b6000610c27610c2284610bce565b610bb3565b90508083825260208201905060208402830185811115610c4a57610c49610bfa565b5b835b81811015610c735780610c5f8882610bff565b845260208401935050602081019050610c4c565b5050509392505050565b600082601f830112610c9257610c91610b3d565b5b8151610ca2848260208601610c14565b91505092915050565b600067ffffffffffffffff821115610cc657610cc5610b53565b5b602082029050602081019050919050565b600081519050610ce68161080e565b92915050565b6000610cff610cfa84610cab565b610bb3565b90508083825260208201905060208402830185811115610d2257610d21610bfa565b5b835b81811015610d4b5780610d378882610cd7565b845260208401935050602081019050610d24565b5050509392505050565b600082601f830112610d6a57610d69610b3d565b5b8151610d7a848260208601610cec565b91505092915050565b60008060408385031215610d9a57610d99610804565b5b600083015167ffffffffffffffff811115610db857610db7610809565b5b610dc485828601610c7d565b925050602083015167ffffffffffffffff811115610de557610de4610809565b5b610df185828601610d55565b9150509250929050565b7f4e6f207061727469636970616e747320666f72207468697320726f756e640000600082015250565b6000610e31601e83610a08565b9150610e3c82610dfb565b602082019050919050565b60006020820190508181036000830152610e6081610e24565b9050919050565b7f4e487b7100000000000000000000000000000000000000000000000000000000600052603260045260246000fd5b7f4e487b7100000000000000000000000000000000000000000000000000000000600052601160045260246000fd5b6000610ed0826107c6565b9150610edb836107c6565b9250828201905080821115610ef357610ef2610e96565b5b92915050565b6000610f04826107c6565b9150610f0f836107c6565b9250828202610f1d816107c6565b91508282048414831517610f3457610f33610e96565b5b5092915050565b7f4e487b7100000000000000000000000000000000000000000000000000000000600052601260045260246000fd5b6000610f75826107c6565b9150610f80836107c6565b925082610f9057610f8f610f3b565b5b828204905092915050565b6000604082019050610fb060008301856108f2565b610fbd60208301846107d0565b9392505050565b610fcd8161091c565b8114610fd857600080fd5b50565b600081519050610fea81610fc4565b92915050565b60006020828403121561100657611005610804565b5b600061101484828501610fdb565b91505092915050565b600060408201905061103260008301856107d0565b61103f60208301846107d0565b939250505056fea264697066735822122012e33368f779481d3c44369b7a8e278e270699cd799ee837b50bca6dcf47214064736f6c634300081c0033",
  "linkReferences": {},
  "deployedLinkReferences": {}
}